{
  "_format": "hh-sol-artifact-1",
  "contractName": "WavePortal",
  "sourceName": "contracts/wavePortal.sol",
  "abi": [
    {
      "inputs": [],
      "stateMutability": "payable",
      "type": "constructor"
    },
    {
      "anonymous": false,
      "inputs": [
        {
          "indexed": true,
          "internalType": "address",
          "name": "from",
          "type": "address"
        },
        {
          "indexed": false,
          "internalType": "uint256",
          "name": "timestamp",
          "type": "uint256"
        },
        {
          "indexed": false,
          "internalType": "string",
          "name": "message",
          "type": "string"
        }
      ],
      "name": "NewWave",
      "type": "event"
    },
    {
      "inputs": [],
      "name": "getAllWaves",
      "outputs": [
        {
          "components": [
            {
              "internalType": "address",
              "name": "waver",
              "type": "address"
            },
            {
              "internalType": "uint256",
              "name": "timestamp",
              "type": "uint256"
            },
            {
              "internalType": "string",
              "name": "message",
              "type": "string"
            }
          ],
          "internalType": "struct WavePortal.Wave[]",
          "name": "",
          "type": "tuple[]"
        }
      ],
      "stateMutability": "view",
      "type": "function"
    },
    {
      "inputs": [],
      "name": "getTotalWaves",
      "outputs": [
        {
          "internalType": "uint256",
          "name": "",
          "type": "uint256"
        }
      ],
      "stateMutability": "view",
      "type": "function"
    },
    {
      "inputs": [
        {
          "internalType": "address",
          "name": "",
          "type": "address"
        }
      ],
      "name": "lastWaved",
      "outputs": [
        {
          "internalType": "uint256",
          "name": "",
          "type": "uint256"
        }
      ],
      "stateMutability": "view",
      "type": "function"
    },
    {
      "inputs": [
        {
          "internalType": "string",
          "name": "_msg",
          "type": "string"
        }
      ],
      "name": "wave",
      "outputs": [],
      "stateMutability": "nonpayable",
      "type": "function"
    }
  ],
  "bytecode": "0x60806040526200004f6040518060400160405280601581526020017f53656520796f752120537061636520436f77626f7900000000000000000000008152506200007760201b620007851760201c565b606444426200005f9190620001c4565b6200006b919062000261565b60018190555062000308565b62000117816040516024016200008e919062000184565b6040516020818303038152906040527f41304fac000000000000000000000000000000000000000000000000000000007bffffffffffffffffffffffffffffffffffffffffffffffffffffffff19166020820180517bffffffffffffffffffffffffffffffffffffffffffffffffffffffff83818316178352505050506200011a60201b60201c565b50565b60008151905060006a636f6e736f6c652e6c6f679050602083016000808483855afa5050505050565b60006200015082620001a8565b6200015c8185620001b3565b93506200016e8185602086016200022b565b6200017981620002f7565b840191505092915050565b60006020820190508181036000830152620001a0818462000143565b905092915050565b600081519050919050565b600082825260208201905092915050565b6000620001d18262000221565b9150620001de8362000221565b9250827fffffffffffffffffffffffffffffffffffffffffffffffffffffffffffffffff0382111562000216576200021562000299565b5b828201905092915050565b6000819050919050565b60005b838110156200024b5780820151818401526020810190506200022e565b838111156200025b576000848401525b50505050565b60006200026e8262000221565b91506200027b8362000221565b9250826200028e576200028d620002c8565b5b828206905092915050565b7f4e487b7100000000000000000000000000000000000000000000000000000000600052601160045260246000fd5b7f4e487b7100000000000000000000000000000000000000000000000000000000600052601260045260246000fd5b6000601f19601f8301169050919050565b61140980620003186000396000f3fe608060405234801561001057600080fd5b506004361061004c5760003560e01c8063449d46c0146100515780639a2cdc081461006d578063bd43a9081461008b578063f4920770146100a9575b600080fd5b61006b60048036038101906100669190610b67565b6100d9565b005b6100756105d1565b6040516100829190610f5c565b60405180910390f35b61009361061c565b6040516100a09190610df3565b60405180910390f35b6100c360048036038101906100be9190610b3e565b61076d565b6040516100d09190610f5c565b60405180910390f35b42610384600360003373ffffffffffffffffffffffffffffffffffffffff1673ffffffffffffffffffffffffffffffffffffffff16815260200190815260200160002054610127919061106e565b10610167576040517f08c379a000000000000000000000000000000000000000000000000000000000815260040161015e90610edc565b60405180910390fd5b42600360003373ffffffffffffffffffffffffffffffffffffffff1673ffffffffffffffffffffffffffffffffffffffff1681526020019081526020016000208190555060016000808282546101bd919061106e565b925050819055506102046040518060400160405280600d81526020017f2573206861732077617665642100000000000000000000000000000000000000815250338361081e565b600260405180606001604052803373ffffffffffffffffffffffffffffffffffffffff16815260200142815260200183815250908060018154018082558091505060019003906000526020600020906003020160009091909190915060008201518160000160006101000a81548173ffffffffffffffffffffffffffffffffffffffff021916908373ffffffffffffffffffffffffffffffffffffffff1602179055506020820151816001015560408201518160020190805190602001906102cd929190610a1e565b505050606460015444426102e1919061106e565b6102eb919061106e565b6102f591906111a5565b60018190555061033c6040518060400160405280601581526020017f52616e646f6d2067656e657261746564207365656400000000000000000000008152506001546108bd565b603260015411610482576103856040518060400160405280600681526020017f257320776f6e000000000000000000000000000000000000000000000000000081525033610959565b6000655af3107a40009050478111156103d3576040517f08c379a00000000000000000000000000000000000000000000000000000000081526004016103ca90610efc565b60405180910390fd5b60003373ffffffffffffffffffffffffffffffffffffffff16826040516103f990610dde565b60006040518083038185875af1925050503d8060008114610436576040519150601f19603f3d011682016040523d82523d6000602084013e61043b565b606091505b505090508061047f576040517f08c379a000000000000000000000000000000000000000000000000000000000815260040161047690610f1c565b60405180910390fd5b50505b3373ffffffffffffffffffffffffffffffffffffffff167f5f7e16dc676677766a70e9c5628aa6c54ddb8b6e5188e2ae1e1f17f1ffbea71642836040516104ca929190610f77565b60405180910390a260006509184e72a000905047811115610520576040517f08c379a000000000000000000000000000000000000000000000000000000000815260040161051790610f3c565b60405180910390fd5b60003373ffffffffffffffffffffffffffffffffffffffff168260405161054690610dde565b60006040518083038185875af1925050503d8060008114610583576040519150601f19603f3d011682016040523d82523d6000602084013e610588565b606091505b50509050806105cc576040517f08c379a00000000000000000000000000000000000000000000000000000000081526004016105c390610f1c565b60405180910390fd5b505050565b60006106146040518060400160405280600e81526020017f546f74616c2057617665732025640000000000000000000000000000000000008152506000546108bd565b600054905090565b60606002805480602002602001604051908101604052809291908181526020016000905b8282101561076457838290600052602060002090600302016040518060600160405290816000820160009054906101000a900473ffffffffffffffffffffffffffffffffffffffff1673ffffffffffffffffffffffffffffffffffffffff1673ffffffffffffffffffffffffffffffffffffffff168152602001600182015481526020016002820180546106d390611142565b80601f01602080910402602001604051908101604052809291908181526020018280546106ff90611142565b801561074c5780601f106107215761010080835404028352916020019161074c565b820191906000526020600020905b81548152906001019060200180831161072f57829003601f168201915b50505050508152505081526020019060010190610640565b50505050905090565b60036020528060005260406000206000915090505481565b61081b816040516024016107999190610e15565b6040516020818303038152906040527f41304fac000000000000000000000000000000000000000000000000000000007bffffffffffffffffffffffffffffffffffffffffffffffffffffffff19166020820180517bffffffffffffffffffffffffffffffffffffffffffffffffffffffff83818316178352505050506109f5565b50565b6108b883838360405160240161083693929190610e67565b6040516020818303038152906040527fe0e9ad4f000000000000000000000000000000000000000000000000000000007bffffffffffffffffffffffffffffffffffffffffffffffffffffffff19166020820180517bffffffffffffffffffffffffffffffffffffffffffffffffffffffff83818316178352505050506109f5565b505050565b61095582826040516024016108d3929190610eac565b6040516020818303038152906040527f9710a9d0000000000000000000000000000000000000000000000000000000007bffffffffffffffffffffffffffffffffffffffffffffffffffffffff19166020820180517bffffffffffffffffffffffffffffffffffffffffffffffffffffffff83818316178352505050506109f5565b5050565b6109f1828260405160240161096f929190610e37565b6040516020818303038152906040527f319af333000000000000000000000000000000000000000000000000000000007bffffffffffffffffffffffffffffffffffffffffffffffffffffffff19166020820180517bffffffffffffffffffffffffffffffffffffffffffffffffffffffff83818316178352505050506109f5565b5050565b60008151905060006a636f6e736f6c652e6c6f679050602083016000808483855afa5050505050565b828054610a2a90611142565b90600052602060002090601f016020900481019282610a4c5760008555610a93565b82601f10610a6557805160ff1916838001178555610a93565b82800160010185558215610a93579182015b82811115610a92578251825591602001919060010190610a77565b5b509050610aa09190610aa4565b5090565b5b80821115610abd576000816000905550600101610aa5565b5090565b6000610ad4610acf84610fcc565b610fa7565b905082815260208101848484011115610aec57600080fd5b610af7848285611100565b509392505050565b600081359050610b0e816113bc565b92915050565b600082601f830112610b2557600080fd5b8135610b35848260208601610ac1565b91505092915050565b600060208284031215610b5057600080fd5b6000610b5e84828501610aff565b91505092915050565b600060208284031215610b7957600080fd5b600082013567ffffffffffffffff811115610b9357600080fd5b610b9f84828501610b14565b91505092915050565b6000610bb48383610d70565b905092915050565b610bc5816110c4565b82525050565b610bd4816110c4565b82525050565b6000610be58261100d565b610bef8185611030565b935083602082028501610c0185610ffd565b8060005b85811015610c3d5784840389528151610c1e8582610ba8565b9450610c2983611023565b925060208a01995050600181019050610c05565b50829750879550505050505092915050565b6000610c5a82611018565b610c64818561104c565b9350610c7481856020860161110f565b610c7d81611292565b840191505092915050565b6000610c9382611018565b610c9d818561105d565b9350610cad81856020860161110f565b610cb681611292565b840191505092915050565b6000610cce60198361105d565b9150610cd9826112a3565b602082019050919050565b6000610cf160248361105d565b9150610cfc826112cc565b604082019050919050565b6000610d1460278361105d565b9150610d1f8261131b565b604082019050919050565b6000610d3760358361105d565b9150610d428261136a565b604082019050919050565b6000610d5a600083611041565b9150610d65826113b9565b600082019050919050565b6000606083016000830151610d886000860182610bbc565b506020830151610d9b6020860182610dc0565b5060408301518482036040860152610db38282610c4f565b9150508091505092915050565b610dc9816110f6565b82525050565b610dd8816110f6565b82525050565b6000610de982610d4d565b9150819050919050565b60006020820190508181036000830152610e0d8184610bda565b905092915050565b60006020820190508181036000830152610e2f8184610c88565b905092915050565b60006040820190508181036000830152610e518185610c88565b9050610e606020830184610bcb565b9392505050565b60006060820190508181036000830152610e818186610c88565b9050610e906020830185610bcb565b8181036040830152610ea28184610c88565b9050949350505050565b60006040820190508181036000830152610ec68185610c88565b9050610ed56020830184610dcf565b9392505050565b60006020820190508181036000830152610ef581610cc1565b9050919050565b60006020820190508181036000830152610f1581610ce4565b9050919050565b60006020820190508181036000830152610f3581610d07565b9050919050565b60006020820190508181036000830152610f5581610d2a565b9050919050565b6000602082019050610f716000830184610dcf565b92915050565b6000604082019050610f8c6000830185610dcf565b8181036020830152610f9e8184610c88565b90509392505050565b6000610fb1610fc2565b9050610fbd8282611174565b919050565b6000604051905090565b600067ffffffffffffffff821115610fe757610fe6611263565b5b610ff082611292565b9050602081019050919050565b6000819050602082019050919050565b600081519050919050565b600081519050919050565b6000602082019050919050565b600082825260208201905092915050565b600081905092915050565b600082825260208201905092915050565b600082825260208201905092915050565b6000611079826110f6565b9150611084836110f6565b9250827fffffffffffffffffffffffffffffffffffffffffffffffffffffffffffffffff038211156110b9576110b86111d6565b5b828201905092915050565b60006110cf826110d6565b9050919050565b600073ffffffffffffffffffffffffffffffffffffffff82169050919050565b6000819050919050565b82818337600083830152505050565b60005b8381101561112d578082015181840152602081019050611112565b8381111561113c576000848401525b50505050565b6000600282049050600182168061115a57607f821691505b6020821081141561116e5761116d611234565b5b50919050565b61117d82611292565b810181811067ffffffffffffffff8211171561119c5761119b611263565b5b80604052505050565b60006111b0826110f6565b91506111bb836110f6565b9250826111cb576111ca611205565b5b828206905092915050565b7f4e487b7100000000000000000000000000000000000000000000000000000000600052601160045260246000fd5b7f4e487b7100000000000000000000000000000000000000000000000000000000600052601260045260246000fd5b7f4e487b7100000000000000000000000000000000000000000000000000000000600052602260045260246000fd5b7f4e487b7100000000000000000000000000000000000000000000000000000000600052604160045260246000fd5b6000601f19601f8301169050919050565b7f596f752063616e2774207761766520746f6f206f6674656e2100000000000000600082015250565b7f436f6e747261637420646f65736e2774206861766520656e6f7567682062616c60008201527f616e636500000000000000000000000000000000000000000000000000000000602082015250565b7f4661696c656420746f207769746864726177206d6f6e65792066726f6d20636f60008201527f6e74726163742e00000000000000000000000000000000000000000000000000602082015250565b7f547279696e6720746f207769746864726177206d6f7265206d6f6e657920746860008201527f616e2074686520636f6e74726163742068617321210000000000000000000000602082015250565b50565b6113c5816110c4565b81146113d057600080fd5b5056fea2646970667358221220c42d6eaded96883265fc8c866debd67f9b457992f665e55a9ec449d14158aa3964736f6c63430008040033",
  "linkReferences": {},
  "deployedLinkReferences": {}
}